:100000000C9464000C948C000C948C000C948C0068
:100010000C948C000C948C000C948C000C948C0030
:100020000C948C000C948C000C948C000C948C0020
:100030000C948C000C948C000C948C000C948C0010
:100040000C94A5070C948C000C94E2050C941406F7
:100050000C948C000C948C000C948C000C948C00F0
:100060000C948C000C948C0000000008000201002D
:100070000003040700000000000000000102040863
:100080001020408001020408102001020408102002
:10009000040404040404040402020202020203032E
:1000A00003030303000000002300260029000000D2
:1000B0000000250028002B0000000000240027007D
:1000C0002A00970144069F0111241FBECFEFD8E0FC
:1000D000DEBFCDBF12E0A0E0B1E0E0E7F5E102C095
:1000E00005900D92A238B107D9F724E0A2E8B2E05A
:1000F00001C01D92A730B207E1F710E0C6ECD0E0D6
:1001000004C02297FE010E947909C23CD107C9F7B9
:100110000E9496070C94AB0A0C94000061E08AE000
:100120000E94F50826E040E05BE460E070E08DE5C9
:1001300093E00E94800566E071E08DE593E00E9407
:10014000D20660E271E08DE593E00C94D20660E0A7
:100150008AE00E94F50862E070E080E090E00E9492
:100160001E0861E08AE00C94F508809124038B302E
:1001700020F48F5F80932403089510922403089540
:100180000E94EF072091260330912703621B730B17
:1001900081099109982F872F762F662726E939E163
:1001A00040E050E00E9455093091250380E090E046
:1001B000432F50E04D575D4FFA01E80FF91FE0580B
:1001C000FF4F2083049680329105B1F73F5F309353
:1001D000250308950E94EF072091260330912703FD
:1001E000621B730B810991096233710581059105C9
:1001F00010F4232BB1F40E94EF07209126033091D5
:100200002703621B730B81099109683C79418105C1
:10021000910550F4232B41F00E94C000109223035B
:1002200008950E94B500FACF0E94A700F7CFCF92A1
:10023000DF92EF92FF9281E08093230384E00E949B
:100240002B09892BC9F4C0902603D0902703E12CF9
:10025000F12C0E94EF07C616D706E806F90660F4EF
:100260008091260390912703892B31F00E94EA00A8
:100270001092270310922603FF90EF90DF90CF900B
:100280000895CF92DF92EF92FF920F93CF93DF9377
:1002900000D000D000D0CDB7DEB784E00E942B099B
:1002A000892B41F00E94EF07709327036093260388
:1002B0000E9417013BE2E32E33E0F32EC12CD12C38
:1002C000F7016081FE01319680E090E097012350B4
:1002D0003109D901A80FB91F4C91469FA0011124E3
:1002E00010824183329601968330910591F70F81F8
:1002F0002D814B81B60189E493E00E946B048FEF5E
:10030000C81AD80AE4E0EE0EF11CF8E0CF16D104CA
:10031000B9F626960FB6F894DEBF0FBECDBFDF91BB
:10032000CF910F91FF90EF90DF90CF90089523E051
:1003300043E068E070E089E493E00C94460489E4CB
:1003400093E00C94F2029F92AF92BF92CF92DF9211
:10035000EF92FF920F931F93CF93DF9300D000D0C3
:10036000CDB7DEB781E08093820267E471E08DE56E
:1003700093E00E94D2068DE593E00E949D04892BB4
:10038000D1F38DE593E00E94B604813611F480E04C
:1003900003C08236A9F481E0C82ED12C860155E035
:1003A000000F111F5A95E1F70D571D4F7E0185E093
:1003B000E80EF11C63E0CC0CDD1C6A95E1F710C07F
:1003C000833611F482E0E8CF843611F483E0E4CF81
:1003D000853611F484E0E0CF1092820280E0B6C04E
:1003E00066E671E08DE593E00E94D20663E871E075
:1003F0008DE593E00E94D2068DE593E00E949D0476
:10040000892B39F059814A813B812C8180E090E031
:100410000EC0CE0101965C018DE593E00E94B6040A
:10042000F50181935F01EE15FF05B1F7E5CFF80106
:10043000E80FF91F5083418332832383049680326F
:100440009105A9F76DEA71E08DE593E00E94D2066F
:100450008DE593E00E949D04892BD1F38DE593E017
:100460000E94B604893739F061EC71E08DE593E0C4
:100470000E94D2065BC06DED71E08DE593E00E94B5
:10048000C5064AE050E067E070E08DE593E00E9429
:100490007D078DE593E00E949D04892BD1F38DE5C6
:1004A00093E00E94B604982E97E09915C0F165EF8D
:1004B00071E08DE593E00E94D20668E072E08DE580
:1004C00093E00E94D2068DE593E00E949D04892B63
:1004D00071F4CE0101965C018DE593E00E94B604B3
:1004E000F50181935F01EE15FF05B1F7ECCFDE0159
:1004F000119620E030E0C601890D911D880F991FEB
:10050000880F991F4D91FC01E20FF31FED57FD4F2E
:1005100040832F5F3F4F24303105A1F793CF65E330
:1005200072E08DE593E00E94D2069ECF8DE593E0C8
:100530000E949D04892BD1F38DE593E00E94B604BF
:100540008E3609F04DCF1092820281E00F900F900D
:100550000F900F90DF91CF911F910F91FF90EF902F
:10056000DF90CF90BF90AF909F90089588E00E9459
:100570002B0921E0892B09F420E02093480385E032
:100580000E942B09892B81F08BE08093240361E08A
:100590000E94F50862E070E080E090E00E941E0892
:1005A00060E08BE00E94F5088091230381110E9496
:1005B00017018DE593E00E949D04892B51F00E9464
:1005C000A301811106C06AE472E08DE593E00C940A
:1005D000D20608950E94B6020E94410189E493E088
:1005E0000C945103CF93DF93EC0188859985009794
:1005F00011F00E94150A8D8187FD05C060E0DF9132
:10060000CF910C94BC08DF91CF910895EF92FF92A7
:100610000F931F93CF93DF93EC017B01888599851E
:10062000009711F00E94150A8701000F111F0E0D8F
:100630001F1D1C830B83C8010E947D099987888731
:10064000009741F0A80160E070E00E94A40AFA82DD
:10065000E98204C01C821B821A821982DF91CF9129
:100660001F910F91FF90EF900895FC01668360FF4A
:1006700004C081E08287138611C062FF06C081E05A
:10068000828782E0838714860895128663FF04C000
:1006900082E0838781E003C081E0838782E08487F2
:1006A0000895CF92DF92EF92FF920F931F93CF9313
:1006B000DF93CDB7DEB729970FB6F894DEBF0FBE34
:1006C000CDBF8C01DC0118968D919C911997892BD7
:1006D00009F49BC00E94FB07F801C584D684E78417
:1006E000F0886C197D098E099F09623371058105B7
:1006F000910580F3F894838194819A838983A085FE
:10070000B1857D01EFEFEE1AFE0A8C918987D80141
:1007100016969C91169751960D90BC91A02DF801BC
:10072000838991FF2EC09C91982B98879C918095EE
:1007300089238F838F818E8388E08D8358856F8195
:1007400049853D812E8189819A81F7015C9347FD1E
:10075000252F3A952C93262F39F0441F00C0000016
:100760006C93000000C0F2CF38E041916C93000020
:10077000019761F7F801B28BA18B49873D832E83E6
:1007800038C09C91982B98879C91809589238F8362
:100790008F818C8388E08B8358856F8149853B816D
:1007A0002C8189819A81F7015C9347FD252F00C038
:1007B00000C02C9300C000C000C000C000C06C93FB
:1007C0000000262F3A9541F0441F000000C000C0F1
:1007D00000C000C000C0E8CF38E0419100C06C9379
:1007E00000C0019709F7F801B28BA18B49873B83C1
:1007F0002C839A83898378940E94FB07D8011D96E5
:100800006D937D938D939C93509729960FB6F89492
:10081000DEBF0FBECDBFDF91CF911F910F91FF9033
:10082000EF90DF90CF9008951F93CF93DF93EC016B
:10083000162F8881882331F08D8187FD03C060E009
:100840000E94BC081D838881882341F061E0812FCC
:100850000E94BC0860E0812F0E94F508812F90E083
:10086000FC01E057FF4FE491F0E0EE0FFF1FE2556F
:10087000FF4F259134913A8B298BFC01E458FF4FAF
:1008800084918B8BDF91CF911F9108950F931F93CC
:10089000CF93DF9300D0CDB7DEB78C01FC0110827F
:1008A000178211861086158616861786108A2A8367
:1008B00049830E9406034981642FC8010E941404E1
:1008C0002A81622FC8010F900F90DF91CF911F9165
:1008D0000F910C9435030F931F93FC01818192813A
:1008E0006817790738F58781882361F0489FA00150
:1008F0001124452F289F90011124232F089F800148
:100900001124012FDB01AA0FBB1FA60FB71F808583
:1009100091858A0F9B1F3285DC01A30FB11D4C937B
:100920003385DC01A30FB11D2C932485FC01E20F5C
:10093000F11D00831F910F910895FC01818D228D7F
:1009400090E0805C9F4F821B91098F7399270895D7
:10095000FC01918D828D981731F0828DE80FF11D89
:10096000858D90E008958FEF9FEF0895FC01918DA4
:10097000828D981761F0828DDF01A80FB11D5D9601
:100980008C91928D9F5F9F73928F90E008958FEF6F
:100990009FEF08958AE396E0892B49F080E090E08C
:1009A000892B29F00E943A0681110C9400000895C9
:1009B000FC01848DDF01A80FB11DA35ABF4F2C91FC
:1009C000848D90E001968F739927848FA689B789CB
:1009D0002C93A089B1898C9180648C93938D848DA4
:1009E000981306C00288F389E02D80818F7D808373
:1009F0000895CF93DF93EC01888D8823C9F0EA89AD
:100A0000FB89808185FD05C0A889B9898C9186FD07
:100A10000FC00FB607FCF5CF808185FFF2CFA88904
:100A2000B9898C9185FFEDCFCE010E94D804E7CF24
:100A3000DF91CF910895CF92DF92FF920F931F9392
:100A4000CF93DF931F92CDB7DEB76C0181E0D60163
:100A500058968C9358975B969C915B975C968C917B
:100A60005C97981307C05096ED91FC915197808147
:100A700085FD2EC0F601038D10E00F5F1F4F0F7331
:100A80001127F02EF601848DF81211C00FB607FC65
:100A9000F9CFD6015096ED91FC915197808185FF59
:100AA000F1CFC60169830E94D8046981EBCF838DA1
:100AB000E80FF11DE35AFF4F6083D6015B960C935C
:100AC0005B975296ED91FC915397808180620CC0A8
:100AD000D6015696ED91FC91579760835096ED9113
:100AE000FC91519780818064808381E090E00F9039
:100AF000DF91CF911F910F91FF90DF90CF900895DC
:100B0000BF92CF92DF92EF92FF92CF93DF93EC01EF
:100B10006A017B01B22EE889F98982E08083411560
:100B200081EE580761057105A1F060E079E08DE381
:100B300090E0A70196010E94550921503109410911
:100B400051095695479537952795211580E1380726
:100B500098F0E889F989108260E874E88EE190E005
:100B6000A70196010E9455092150310941095109F7
:100B70005695479537952795EC85FD853083EE850D
:100B8000FF852083188EEC89FD89B082EA89FB8974
:100B9000808180618083EA89FB898081886080838D
:100BA000EA89FB89808180688083EA89FB8980816A
:100BB0008F7D8083DF91CF91FF90EF90DF90CF907A
:100BC000BF9008951F920F920FB60F9211242F938A
:100BD0008F939F93EF93FF93E0916D03F0916E03DA
:100BE0008081E0917303F091740382FD12C09081C3
:100BF000809176038F5F8F7320917703821751F076
:100C0000E0917603F0E0E35AFC4F958F80937603F2
:100C100001C08081FF91EF919F918F912F910F9053
:100C20000FBE0F901F9018951F920F920FB60F9244
:100C300011242F933F934F935F936F937F938F93E1
:100C40009F93AF93BF93EF93FF938DE593E00E9443
:100C5000D804FF91EF91BF91AF919F918F917F91B8
:100C60006F915F914F913F912F910F900FBE0F9019
:100C70001F9018958DE593E00E949D0421E0892B3B
:100C800009F420E0822F08951092600310925F0310
:100C900088EE93E0A0E0B0E080936103909362035C
:100CA000A0936303B093640384E692E090935E03A1
:100CB00080935D0385EC90E090936A0380936903D1
:100CC00084EC90E090936C0380936B0380EC90E055
:100CD00090936E0380936D0381EC90E0909370038A
:100CE00080936F0382EC90E0909372038093710382
:100CF00086EC90E0909374038093730310927603D4
:100D00001092770310927803109279030895CF928E
:100D1000DF92EF92FF920F931F93CF93DF937C01AB
:100D20006A01EB0100E010E00C151D0571F06991FE
:100D3000D701ED91FC910190F081E02DC70109955B
:100D4000892B19F00F5F1F4FEFCFC801DF91CF91B3
:100D50001F910F91FF90EF90DF90CF900895611554
:100D6000710581F0DB010D900020E9F7AD014150E4
:100D70005109461B570BDC01ED91FC910280F38178
:100D8000E02D099480E090E008950C94AF06DC011A
:100D9000ED91FC910190F081E02D099460E772E003
:100DA0000C94AF060F931F93CF93DF93EC010E9437
:100DB000AF068C01CE010E94CE06800F911FDF91FD
:100DC000CF911F910F9108958F929F92AF92BF92F2
:100DD000DF92EF92FF920F931F93CF93DF93CDB7E4
:100DE000DEB7A1970FB6F894DEBF0FBECDBF7C0172
:100DF000F42FD52ECB0119A2223008F42AE08E015F
:100E00000F5D1F4F822E912CA12CB12C6F2F7D2DA9
:100E1000A50194010E945509F22FD32ECA01015059
:100E200011096A3014F4E0E301C0E7E3E60FD801EA
:100E3000EC93232B242B252B49F7B801C7010E94E3
:100E4000AF06A1960FB6F894DEBF0FBECDBFDF91FF
:100E5000CF911F910F91FF90EF90DF90BF90AF90D7
:100E60009F908F900895CF92DF92EF92FF920F9311
:100E70001F93CF93DF93EC016A017B0121153105AC
:100E800079F4E881F9810190F081E02D642FDF9100
:100E9000CF911F910F91FF90EF90DF90CF90099429
:100EA0002A303105E9F477FF1AC06DE20E94C706C7
:100EB0008C0144275527BA014C195D096E097F0939
:100EC0002AE0CE010E94E406800F911FDF91CF91AE
:100ED0001F910F91FF90EF90DF90CF9008952AE03F
:100EE000B701A601CE01DF91CF911F910F91FF9025
:100EF000EF90DF90CF900C94E4060F931F93CF9365
:100F0000DF93EC019A01AB01662757FD6095762FC0
:100F10000E9433078C01CE010E94CE06800F911FE4
:100F2000DF91CF911F910F91089508950E94580865
:100F30000E9495070E948E00CAECD4E00E94EA024B
:100F40002097E1F30E94CA04F9CF1F920F920FB6C7
:100F50000F9211242F933F938F939F93AF93BF933F
:100F60008091FB039091FC03A091FD03B091FE03DF
:100F70003091FA0323E0230F2D3720F40196A11DB1
:100F8000B11D05C026E8230F0296A11DB11D2093B7
:100F9000FA038093FB039093FC03A093FD03B093AB
:100FA000FE038091FF0390910004A0910104B09191
:100FB00002040196A11DB11D8093FF0390930004CC
:100FC000A0930104B0930204BF91AF919F918F91C0
:100FD0003F912F910F900FBE0F901F9018952FB734
:100FE000F8946091FB037091FC038091FD03909154
:100FF000FE032FBF08953FB7F8948091FF039091AF
:101000000004A0910104B091020426B5A89B05C07C
:101010002F3F19F00196A11DB11D3FBF6627782F04
:10102000892F9A2F620F711D811D911D42E0660F5D
:10103000771F881F991F4A95D1F708958F929F9225
:10104000AF92BF92CF92DF92EF92FF926B017C0141
:101050000E94FB074B015C01C114D104E104F104BF
:10106000F1F00E9454090E94FB07681979098A0966
:101070009B09683E73408105910570F321E0C21A17
:10108000D108E108F10888EE880E83E0981EA11CC3
:10109000B11CC114D104E104F10429F7DDCFFF90A4
:1010A000EF90DF90CF90BF90AF909F908F9008957A
:1010B000789484B5826084BD84B5816084BD85B533
:1010C000826085BD85B5816085BDEEE6F0E08081FA
:1010D00081608083E1E8F0E010828081826080831B
:1010E000808181608083E0E8F0E08081816080839E
:1010F000E1EBF0E0808184608083E0EBF0E08081D0
:1011000081608083EAE7F0E0808184608083808171
:101110008260808380818160808380818068808319
:101120001092C1000895833081F028F4813099F045
:101130008230A1F008958730A9F08830B9F084306A
:10114000D1F4809180008F7D03C0809180008F77E3
:1011500080938000089584B58F7702C084B58F7D19
:1011600084BD08958091B0008F7703C08091B00056
:101170008F7D8093B0000895CF93DF9390E0FC01C2
:10118000E458FF4F2491FC01E057FF4F84918823DE
:1011900049F190E0880F991FFC01E854FF4FA59199
:1011A000B49182559F4FFC01C591D4919FB76111B5
:1011B00008C0F8948C91209582238C938881822397
:1011C0000AC0623051F4F8948C91322F3095832309
:1011D0008C938881822B888304C0F8948C91822B15
:1011E0008C939FBFDF91CF9108950F931F93CF935F
:1011F000DF931F92CDB7DEB7282F30E0F901E85911
:10120000FF4F8491F901E458FF4F1491F901E05721
:10121000FF4F04910023C9F0882321F069830E94C5
:1012200093086981E02FF0E0EE0FFF1FE255FF4FBA
:10123000A591B4919FB7F8948C91611103C010955A
:10124000812301C0812B8C939FBF0F90DF91CF91A1
:101250001F910F910895CF93DF93282F30E0F9016C
:10126000E859FF4F8491F901E458FF4FD491F901F7
:10127000E057FF4FC491CC2391F081110E94930855
:10128000EC2FF0E0EE0FFF1FEC55FF4FA591B4914E
:101290002C912D2381E090E021F480E002C080E0D9
:1012A00090E0DF91CF9108950895A1E21A2EAA1B34
:1012B000BB1BFD010DC0AA1FBB1FEE1FFF1FA21706
:1012C000B307E407F50720F0A21BB30BE40BF50B03
:1012D000661F771F881F991F1A9469F7609570958C
:1012E000809590959B01AC01BD01CF010895EE0F53
:1012F000FF1F0590F491E02D0994CF93DF93823086
:10130000910510F482E090E0E0910504F09106046C
:1013100020E030E0A0E0B0E0309739F14081518129
:1013200048175907B8F04817590771F4828193811B
:10133000109729F013969C938E9312972CC090933C
:1013400006048093050427C02115310531F04217AA
:10135000530718F0A901DB0101C0EF019A01BD019B
:10136000DF010280F381E02DD7CF21153105F9F09F
:10137000281B390B2430310580F48A819B8161154B
:10138000710521F0FB019383828304C090930604CE
:1013900080930504FE01329644C0FE01E20FF31F64
:1013A0008193919322503109398328833AC0209147
:1013B000030430910404232B41F420910201309165
:1013C0000301309304042093030420910001309121
:1013D00001012115310541F42DB73EB740910401BB
:1013E00050910501241B350BE0910304F091040496
:1013F000E217F307A0F42E1B3F0B2817390778F0EC
:10140000AC014E5F5F4F2417350748F04E0F5F1F4A
:1014100050930404409303048193919302C0E0E04D
:10142000F0E0CF01DF91CF910895CF93DF93009744
:1014300009F487C0FC01329713821282C09105041F
:10144000D0910604209781F420813181280F391F23
:1014500080910304909104048217930779F5F09327
:101460000404E09303046DC0DE0120E030E0AE1719
:10147000BF0750F412964D915C9113979D01411551
:10148000510509F1DA01F3CFB383A2834081518181
:10149000840F951F8A179B0771F48D919C9111976A
:1014A000840F951F02969183808312968D919C9153
:1014B0001397938382832115310529F4F093060451
:1014C000E09305043EC0D9011396FC93EE93129766
:1014D0004D915D91A40FB51FEA17FB0779F4808148
:1014E0009181840F951F0296D90111969C938E933A
:1014F0008281938113969C938E931297E0E0F0E0A3
:101500008A819B81009719F0FE01EC01F9CFCE0191
:10151000029628813981820F931F20910304309114
:1015200004042817390769F4309729F41092060447
:101530001092050402C013821282D0930404C09357
:101540000304DF91CF910895DC0101C06D934150F8
:101550005040E0F7089510E0C6ECD0E004C0FE0172
:101560000E9479092296C83CD107C9F7F894FFCFA9
:1015700000000704800042524947485420424F5916
:1015800020736574757020636F6D706C6574650091
:10159000456E746572206120636861726163746571
:1015A0007220746F20637573746F6D697365206347
:1015B0006F6C6F7572730053656C65637420612086
:1015C0006368616E6E656C20746F20656469742059
:1015D0005B612D655D0045646974206368616E6EB2
:1015E000656C2067656E6572696320636F6C6F75EB
:1015F000723A00496E7075742034206368616E6EB3
:10160000656C20382062697420636F6C6F7572207E
:101610005B725D5B675D5B625D5B6C5D0045646931
:1016200074206120706978656C3F205B792F6E5D56
:10163000006564697420616E6F7468657220636808
:10164000616E6E656C3F205B792F6E5D00456E7438
:10165000657220706978656C206E756D62657220A8
:1016600030202D20004564697420706978656C20F5
:10167000636F6C6F75723A00496E70757420342018
:101680006368616E6E656C20382062697420636FD8
:101690006C6F7572205B725D205B675D205B625DC5
:1016A000205B6C5D00496E76616C696420706978BE
:1016B000656C2076616C75652100436F6E666967A5
:1016C00075726174696F6E206661696C6564210072
:1016D000000000001B0587069D04B604A804F90459
:1016E0000D0A006E616E00696E66006F7666002EF0
:0216F0000000F8
:00000001FF
